:100000000C9461000C9473000C9473000C947300B6
:100010000C9473000C9473000C9473000C94730094
:100020000C9473000C9473000C9473000C94730084
:100030000C9473000C9473000C9473000C94730074
:100040000C948C010C9473000C9473000C9473004A
:100050000C9473000C9473000C9473000C94730054
:100060000C9473000C94730000000000240027001F
:100070002A0000000000250028002B0000000008D6
:10008000000201000003040700000000000000005F
:1000900000000000230026002900040404040404D6
:1000A0000404020202020202030303030303010227
:1000B00004081020408001020408102001020408F6
:1000C000102011241FBECFEFD8E0DEBFCDBF21E04E
:1000D000A0E0B1E001C01D92A930B207E1F70E9493
:1000E0001B020C9407030C94000090E0FC01E45800
:1000F000FF4F2491FC01E255FF4F3491FC01E6567D
:10010000FF4FE491EE23C9F0222339F0233001F1AF
:10011000A8F4213019F1223029F1F0E0EE0FFF1F91
:10012000EE58FF4FA591B4918FB7F894EC916111FF
:1001300026C030953E233C938FBF08952730A9F009
:100140002830C9F0243049F7809180008F7D03C0AA
:10015000809180008F7780938000DFCF84B58F7788
:1001600084BDDBCF84B58F7DFBCF8091B0008F77CE
:100170008093B000D2CF8091B0008F7DF9CF3E2B1D
:10018000DACFCF93DF9390E0FC01E255FF4F24914B
:1001900086569F4FFC0184918823D1F090E0880F10
:1001A000991FFC01E859FF4FA591B491FC01EE584D
:1001B000FF4FC591D49161110EC09FB7F8948C91F7
:1001C000E22FE0958E238C932881E223E8839FBF62
:1001D000DF91CF9108958FB7F894EC91E22BEC93D7
:1001E0008FBFF6CFE82FF0E0E458FF4FE491E33003
:1001F00011F138F4E130A9F0E230C1F060E00C9484
:100200007500E73011F1E83041F1E430B9F7809141
:10021000800080628093800070938B0060938A00DE
:10022000089584B5806884BD67BD089584B58062F3
:1002300084BD68BD089580918000806880938000AF
:10024000709389006093880008958091B000806861
:100250008093B0006093B30008958091B0008062F5
:100260008093B0006093B40008953FB7F8948091F4
:10027000050190910601A0910701B091080126B5F2
:10028000A89B05C02F3F19F00196A11DB11D3FBFCE
:10029000BA2FA92F982F8827BC01CD01620F711D9D
:1002A000811D911D42E0660F771F881F991F4A9597
:1002B000D1F708958F929F92AF92BF92CF92DF9223
:1002C000EF92FF924B015C010E9435016B017C01B2
:1002D0000E9435016C197D098E099F09683E7340A3
:1002E00081059105A8F321E0821A9108A108B108BF
:1002F00088EEC80E83E0D81EE11CF11C8114910425
:10030000A104B10429F7FF90EF90DF90CF90BF9048
:10031000AF909F908F9008951F920F920FB60F92FB
:1003200011242F933F938F939F93AF93BF9380910B
:10033000010190910201A0910301B091040130915B
:10034000000123E0230F2D3758F50196A11DB11DA3
:10035000209300018093010190930201A093030177
:10036000B09304018091050190910601A0910701CD
:10037000B09108010196A11DB11D809305019093D4
:100380000601A0930701B0930801BF91AF919F911F
:100390008F913F912F910F900FBE0F901F90189546
:1003A00026E8230F0296A11DB11DD2CFCF92DF9276
:1003B000EF92FF920F931F93E82FF92F05C0015082
:1003C00011092109310961F1908196239417B9F33C
:1003D00005C0015011092109310911F190819623BD
:1003E0009413F7CFC12CD12CE12CF12C0AC08FEF44
:1003F000C81AD80AE80AF80A0C151D052E053F058B
:1004000079F080818623841791F36C2D7D2D8E2DBC
:100410009F2D1F910F91FF90EF90DF90CF90089547
:1004200060E070E080E090E01F910F91FF90EF900E
:10043000DF90CF900895789484B5826084BD84B5B0
:10044000816084BD85B5826085BD85B5816085BDCF
:1004500080916E00816080936E0010928100809187
:10046000810082608093810080918100816080930F
:100470008100809180008160809380008091B10034
:1004800084608093B1008091B00081608093B0005F
:1004900080917A00846080937A0080917A008260F3
:1004A00080937A0080917A00816080937A008091B5
:1004B0007A00806880937A001092C10061E088E041
:1004C0000E94C10060E089E00E94C10061E084E018
:1004D0000E94C10061E085E00E94C10061E086E009
:1004E0000E94C10061E087E00E94C100C3E2D0E049
:1004F00097EBE92E90E0F92E23EAC22E20E0D22ECF
:1005000030E0A32E30E0B32E61E088E00E94750059
:10051000CE010197F1F760E088E00E947500F701D5
:100520006491F6018491E82FF0E0EE0FFF1FE05791
:10053000FF4F8591949100E412E42FE030E0462FC4
:100540000E94D601611571058105910529F06F5F43
:100550007F4F8F4F9F4F9F70643E754078F160E0F2
:1005600084E00E94750061E085E00E94750061E012
:100570008AE00E94C1006CE370E08AE00E94F20011
:1005800061E08BE00E94C1006CE370E08BE00E94B0
:10059000F20061E086E00E94750060E087E00E9462
:1005A000750062E370E080E090E00E945A01A114BF
:1005B000B10409F4A9CF0E940000A6CF61E084E055
:1005C0000E94750060E085E00E94750061E08AE0AD
:1005D0000E94C10064E670E08AE00E94F20061E0DF
:1005E0008BE00E94C10064E670E08BE00E94F200A4
:1005F00061E086E00E94750060E087E00E9475007F
:100600006CE474E080E090E00E945A01CACFF89454
:02061000FFCF1A
:00000001FF